S01C0000626F6F746C6F616465722D756172742D62676170692E73333794
S113000000800020ED020000EB020000ED03000080
S1130010EB020000EB020000EB020000EB02000028
S1130020EB020000EB02000050300000EB02000085
S1130030EB02000090300000EB020000EB02000035
S113004010B5054C237833B9044B13B1044800E0D0
S113005000BF0123237010BD180100200000000020
S1130060A832000008B5034B1BB10349034800E064
S113007000BF08BD000000001C010020A8320000E1
S1130080044B054A9A60D3F8882042F47002C3F8FE
S11300908820704700ED00E0000000000179012293
S11300A00431033001F05EBE01F0B2BD00B5C3B04F
S11300B002F04FFFB0F5027F17D14FF48472002194
S11300C0684602F09EFFA0238DF8033002238DF8CA
S11300D0043001238DF8063003238DF807300B23F9
S11300E068468DF80830FFF7D9FF4FF48472002179
S11300F0684602F086FFA0238DF8033004238DF8B0
S1130100043000239B6A68469B68CDF80730FFF7EC
S1130110C5FF43B05DF804FB70B5ADF5856D4FF4D4
S11301208472002181A802F06CFF022320258DF83F
S113013008326C4B04AC0FCB84E80F002C22002156
S11301400DEB05008DF8075202F05BFFFF234FF41F
S11301508E720021C3A88DF8213002F052FF48228C
S1130160002113A802F04DFF6822002125A802F007
S113017048FF2B4625AA13A9C3A801F0C8FF0025F0
S11301804FF4847200213FA802F03BFF4FF47A76CB
S113019001F020FE0028FBD001230096194603AA93
S11301A00DF1FF0001F03AFE9DF8FF30202BEFD156
S11301B001230321009603AA40A801F02FFE039B0C
S11301C0032BDDD19DF8006176B140F6B83331469A
S11301D0009303AA01230DF2031001F01FFE039BF9
S11301E09E42CDD10028CBD19DF80131002BC7D13F
S11301F09DF80231032BC3D8DFE803F064020D2518
S113020001238DF80B528DF80A328DF80C5281A817
S1130210FFF744FFB4E79DF80331009441AA08A90D
S1130220C3A801F0B5FF02238DF80A3248B141F2A8
S1130230070240F60333904208BF0023ADF80B32A7
S1130240E5E70346FAE703238DF80A329DF82230E6
S11302500BB39DF82330002B40F6033318BF002363
S113026081A8ADF80B32FFF719FF9DF82230002B5F
S113027086D09DF82330002B82D09DF8203013F0D7
S1130280040210D0129802F079FD38B101F0ABFCF1
S113029002F086FD74E740F60333E1E740F2022002
S11302A002F028FE6CE79B077FF56AAF936A099A10
S11302B09B689A427FF664AF01F095FC119902F0B5
S11302C033FD5DE79DF822302BB19DF8233013B93F
S11302D040F20320E4E79DF80331012BDED040F225
S11302E00120DDE72C3000007047FEE708B5FFF77A
S11302F0C7FE00F0CDF80E4B0E48DA1C121AC11ED0
S113030022F00302994288BF00220B4902F06CFEDE
S11303100A4B0B48DA1C121AC11E22F0030299423E
S113032088BF0022002102F06CFE00F063F800BFD9
S11303301801002000010020AC320000C40300209A
S113034018010020002070477047012070470020EA
S1130350704700207047000030B51C4B87B001AADD
S113036003F11005144618685968083303C4AB42F6
S11303702246F7D11B782370154B1B6F03F007033C
S1130380032B1FD04FF48022124B5A66124A9368F3
S1130390C3F30443102B17D806A90B4413F8143CD9
S11303A00E480F4943438B4203D19268C2F3016262
S11303B0D340074A106FC0F303300130B3FBF0F0B1
S11303C007B030BD074BF4E7074BF2E73C300000C1
S11303D000800040009000400000014040420F00B7
S11303E000093D0000F04902C0EA21014FF4017008
S11303F002F080BD224B10B51B68C3F30743012BE9
S11304000DD1204B04205A6E4FF480231E494B66B5
S113041001F51041086251035CBF1C4A53664FF05A
S113042040234FF400621A67D3F88420D206FBD429
S1130430FFF78DFF02F041FDFFF736FEFFF736FEB2
S113044018B14FF4017002F055FDFFF765FE044644
S1130450FFF74AFF1CB140F203739C4203D140F200
S1130460012002F047FDA4F20574012C94BF40F270
S113047003204FF4017002F03DFD002010BD00BFC9
S11304800080E00F008000400090004000A0004089
S113049013B501244FF040238DF806408DF8074032
S11304A0D3F894305B060BD502F038FDA0F202209D
S11304B080B2072804D804FA00F010F0C90F02D162
S11304C000F000FD20B100238DF806308DF80730D0
S11304D04FF4C0435B68013308D14FF4027002F05B
S11304E0FEFC00238DF806308DF807309DF80730A8
S11304F063B14FF4C04002F0CFFB8DF806009DF8C5
S113050006301BB94FF4027002F0E9FC9DF8063086
S113051063B14FF4C043064A93601846016881F3FF
S1130520088881F3098840688746FEE702B010BD59
S113053000ED00E00020704730B50824094B002589
S11305405C66012403F5FE235C6001449D601A612E
S1130550DC60884201D1586A30BD10F8012B1A6260
S1130560F7E700BF00900040F8B516464FF400527C
S11305701D46114B04469A660222C3F860220F46B8
S113058001F00EFADDE90612204601F00DFA00230F
S113059084F8387063623368C4F839307368C4F817
S11305A03D30B368C4F841302B0C6DBA84F8453043
S11305B0A4F84650F8BD00BF0090004030B50D4689
S11305C085B0194600F12803CDE90152009300F1EA
S11305D0240200F1380301F037FA05B030BD000001
S11305E02DE9F041B0B014460646369D00286AD085
S11305F0002968D0002A66D0002B64D0002D62D078
S113060006224FF400500692304A20AF9066032031
S1130610C2F860020022BE4609920C920F920A466A
S113062001F12008F446106851680832ACE8030070
S11306304245E646F6D122460DF1A00C04F1200E07
S1130640644610685168083203C47245A446F7D161
S11306500DF1400C1A46644603F1200E234610683F
S11306605168083203C372451C46F7D12B4618ACB7
S11306702035224618685968083303C2AB42144631
S1130680F7D14023CDE90A73089320230AAA0E93D5
S113069003AB07CACDF81CC00D9683E8070007AB6F
S11306A093E807008DE807000DAB0ECB084800F077
S11306B09FFF0690069B40F20460002B08BF0020B9
S11306C030B0BDE8F08140F20160F9E700900040ED
S11306D0283200004FF40052074B10B59A660222EC
S11306E00446C3F8602200F0C3F82046BDE8104079
S11306F0002100F0C1B800BF0090004000F0C1B874
S1130700014600F0CBB800002DE9F34799460A9B57
S11307100C46196805463F29164642D85A68002AED
S113072041D0224A002E14BFB046904601F03F0744
S1130730091928BF5A68196024BF01325A60AFB141
S1130740C7F1400AA24521D82946524609EB0700C1
S113075002F04AFC0123414600934A4633460020F6
S113076000F0A4F8B046403C55443C443F2C0CD91E
S1130770A3092A46009341463346002000F096F828
S113078024F03F031D4404F03F0400272CB122460B
S1130790294609EB070002F027FC002002B0BDE85F
S11307A0F0879046C2E7DFF80480BFE7D03000004E
S11307B030B40546084611461A46DDE9023425B927
S11307C031B1029430BCFFF79FBF024830BC704780
S11307D00846FBE780AFFFFF2DE9F0411746146898
S11307E086B01E46E3008DF80F30630952688DF819
S11307F00E30630B8DF80D30630D8DF80C30D30083
S113080003EB54738DF80B3004F03F045309372C79
S11308108DF80A304FEA52334FEA525205468DF8AA
S11308200820884694BFC4F13802C4F17802CDE9A7
S113083000178DF809300D4903460020FFF7B8FF73
S1130840082143462A4600970DEB0100FFF75CFFA1
S1130850284605F1200350F8042B984246F8042B4F
S1130860F9D1002006B0BDE8F08100BFF0300000EF
S11308706822002102F0C5BB0023C0E900331846FA
S1130880704707B500F128030190009300F10803B5
S11308900020FFF78DFF03B05DF804FB02460B4612
S11308A000F128010830FFF797BF0000F0B51D469E
S11308B093B0002837D1189B06909B01CDE90423FF
S11308C00AAB0A461E4601F120071C46106851680F
S11308D0083203C4BA422346F7D10023079609938A
S11308E001F040F90446D8B92023089304AB93E8F7
S11308F007008DE8070007AB04200ECB00F0E8FFEB
S1130900074601F045F987B92B46324612AE154623
S113091003CDB542186059602A4603F10803F6D1A5
S1130920204613B0F0BD024CFAE7024CF8E700BFD2
S113093080AFFFFF80ADFFFF1FB510220E4B5A663C
S1130940FFF70AFD4FF47A23B0FBF3F00B4B0E22B2
S113095018600021684602F054FB01238DF8003032
S113096040F2FF3369460648ADF8023000F05DFA04
S113097005B05DF804FB00BF009000403801002082
S11309800080044030B50D4D0D4A2D68536A15FBA7
S113099000F010FA83F09CB280B2A0422CBF002475
S11309A00124084B1880084B1C7011B1536A834210
S11309B0FCD1012305494B61936130BD380100200E
S11309C000800440340100203601002000A00440CF
S11309D0094B0A4A5869127800F001000AB108B9B3
S11309E0704738B9586A064B1B88984234BF0020B8
S11309F00120704701207047008004403601002028
S1130A0034010020420910B510D0012A10D00B4B3C
S1130A100B4C022A18BF234600F01F0051B103F506
S1130A208053012202FA00F0186010BD1346F3E768
S1130A30044BF1E703F50053F3E700BF688000407F
S1130A406082004064800040F0B54AB10125302640
S1130A501C4C8D4006FB00440BB341F21006A5511B
S1130A6030244443072904F1804404F5703419D830
S1130A700F2765688E00B74025EA070502FA06F6D7
S1130A803543656052B90122302402FA01F10D4A5E
S1130A9004FB00209BB141F21003C150F0BD42F2AF
S1130AA01006DCE70F27A1F10805E668AD00AF40AA
S1130AB026EA070602FA05F53543E560E2E742F265
S1130AC01003EAE700C00340F0B5114A114C124E7E
S1130AD000F00105E3695F0713D40DB9334213D164
S1130AE003EA00078F4207D10B4A1A40002A14BFB9
S1130AF06FF001000020F0BD013AEBD16FF002006D
S1130B00F9E74FF0FF30F6E76FF00100F3E700BFBD
S1130B108096980000000340020001004FF4003268
S1130B2038B50F4B0F4C9A6641F671330122E569D3
S1130B30E3630D4B0021DA6002236061212023610D
S1130B4005F48035FFF7C0FF10B92120FFF7BCFF83
S1130B500122064BDA600DB10023E36338BD00BF08
S1130B6000900040000003400010034000200340B8
S1130B702DE9F04F06464FF4402501202C4CDFF8B8
S1130B80BCC04FF40037CCF8040044F8265030259C
S1130B900024DFF8ACE0DFF8AC9005FB06E5EC657B
S1130BA02C662C67234CDFF8A0A0A76641F67137AA
S1130BB004F51C34D4F81C80E763E76800FA06F6F1
S1130BC00743E7604BB9E26818F4803F22F0010262
S1130BD0E26000D0E363184628E001F5005000EA23
S1130BE00900401A984228BF18466161D4F81CB025
S1130BF087081BF0040F17D1013F3F0147F06057EE
S1130C006F66AA66C5F86CA0CCF82460DEF8347070
S1130C103E42FBD0084F01447E630427CCF8286091
S1130C20024427611B1ACDE74FF0FF30BDE8F08F77
S1130C3000400440009000400020044000100440A4
S1130C400000044000E0FFFF18000340C369032BC9
S1130C509FBF00EB83020133D160C3617047000082
S1130C602DE9F043C469042C6BD8374B374A5D6EC9
S1130C704FF4803336495366364E374AED03C1F894
S1130C800026C1F804665CBFA1F5E4214B66334B32
S1130C90334D1360034653F80C1B5160C0F12042DE
S1130CA003EB840102F598428B4202EB030620D148
S1130CB026460027436803BB39463046264A41EAA4
S1130CC0046191601368516892684B40534000225C
S1130CD0904231D145F82030BFF34F8F2149224B48
S1130CE0CA6802F4E0621343CB60BFF34F8F00BFC6
S1130CF0FDE753F8047B3760D6E70022D3F8009071
S1130D0005EB860ED3F808C0F046CCF3990C944555
S1130D1007EB020106EB02000EF1040E06D85A6836
S1130D20012ACBD00F4606465B68C4E759F8221067
S1130D300132C8F80010E5E755F8221001324B40A3
S1130D40C6E7BDE8F08300BF00800040009000408B
S1130D5000C00740004E00A0004C00A0DEC0ECE53F
S1130D600C4C00A000ED00E00400FA05144B1549FA
S1130D705A6E4FF48033D20358BF134A10B54B66F2
S1130D8001F5E621D1F8041658BF53660A680F4BE3
S1130D909A4213D10B690533B3F5007F0ED20022BA
S1130DA014469A4205D351F82300031B5842584174
S1130DB010BD51F8220001324440F2E70020F7E769
S1130DC0008000400090004000A00040DEC0ECE540
S1130DD038B50F4B0F495A6E4FF48033D20358BFC6
S1130DE00D4A4B6601F5E621D1F80456044658BF76
S1130DF0536630B1FFF7BAFF30B100206B6823604F
S1130E0038BD4FF4E020FBE74FF47E00F8E700BF65
S1130E10008000400090004000A00040036BDA070F
S1130E2002D503695B06F9D4704710B5FFF7F6FFE6
S1130E30012200F500531A630B79044648881B020B
S1130E4043EA8043487A03434878002814BF40208B
S1130E5000200343887A002814BF80200020034325
S1130E60C87A002814BF202000200343087B0028F0
S1130E7014BF102000200343487B002814BF08201F
S1130E80002003438879002814BF4FF480300020E9
S1130E900343636004F580531A630A780AB9022392
S1130EA0E36000236362C8790B7A497943EA8003DB
S1130EB0002914BF102100210B43A3600AB10123B0
S1130EC0E36010BD4FF08062164B13B55A660721DC
S1130ED0012304220220FFF7B7FD00230093009BA7
S1130EE0632B19DD0222012307211046FFF7ACFD15
S1130EF000230193019BB3F5FA7F10DB0A4B002218
S1130F005C6F072101230220FFF79EFD6FEAD410D6
S1130F1000F0010002B010BD009B0133DEE7019B2D
S1130F200133E6E70090004000C0034013B51AB156
S1130F300024009400F046F902B010BD30B501B1B0
S1130F400139084CE568ED03FCD443EA012112079A
S1130F5041EA000302F08052134343F0004363600C
S1130F6030BD00BF0020024CF0B58DB005AC84E864
S1130F7007001C46A1420D4628BF2546129B0DB30F
S1130F8004B311462846002603F51813CDE90A4692
S1130F908DE8030003F241135F02C5EB4323099379
S1130FA002950CAA059B12E90700069500F0AAFC1D
S1130FB0A54207D23146621B381B0DB0BDE8F04094
S1130FC000F09EBC0DB0F0BD30B591B001AC84E82A
S1130FD007000A461C46039B0146D8004ABF033259
S1130FE0620022F0030204A8FFF7A0FF04A800F0A7
S1130FF0FFF81499224601F5181101F241114D022E
S113100008A8C4EB41210023FFF790FF05F5007108
S113101000232246091B0CA8FFF788FF0CA800F048
S1131020E7F808A904A800F0BDF811B030BD10B568
S11310308CB005AC84E807000E9ADDE9060102F5E0
S1131040181202F5A0725202CDE9092300228DE89C
S113105003000B9202930CAA059B12E9070000F00F
S113106051FC0CB010BD00000122054B9A60DA68F7
S1131070D203FCD4D86820F00F000004000C7047A1
S11310800020024C2DE9F04B4FF00008994607462A
S1131090164645468AB003AC84E8070002F0805B3C
S11310A007AC049A424502D80AB0BDE8F08B139B02
S11310B013B9AA1E012A0AD9129BCDE90779099608
S11310C000955BB194E807004B46FFF74DFFBBF179
S11310D0000F00D14F440135C844E2E74B4694E881
S11310E00700FFF7A4FFF2E782B01FB507930A9B3E
S11310F004AC8B4228BF0B4604E907001048D1001A
S1131100079948BF03330160099948BF23F00303DB
S113111023F0704301F0E041194341F00051816034
S1131120002102F0E042019C134343F00053C160EC
S113113004618361416304B0BDE8104002B07047AC
S11311400000024C3F22034B1A631022DA6103228F
S11311509A6370470000024C024AD36B9B07FCD48D
S1131160704700BF0000024C034B986A10F0240043
S113117018BF0420704700BF0000024C08B5FFF7F9
S1131180F3FF064BDB6B23F47F4323F0EF030343AE
S11311901EBF0122024BC3F8FC2F08BD0000024C05
S11311A000F0FF3F032208B5054B186019615A632C
S11311B0FFF7C8FFFFF7D0FFBDE80840FFF7DEBF29
S11311C00000024C10B522F0704200F11004C0E996
S11311D00014826041B1826803F07043134383605A
S11311E0029BC360204610BD836843F08043F6E74A
S11311F001234360C36843F02003C360836843F062
S1131200005383607047C368DB0658BFC368C36874
S113121003F00F03012B02D0033B012B08D8C36852
S113122001F01F0143EA0123C3608368194481600C
S11312307047000042680346182A10B50AD0202AD5
S11312401DD0102A2BD1174AD2F80424D4010AD471
S1131250012013E0134AD2F804249001F8D50A6857
S113126042F008020A6010481A6882424FF00000F7
S11312700ED10A6842F040020A60586010BD094A63
S1131280D2F804245201E3D50A6842F00402E9E7E3
S1131290064CA242F2D10A6842F08002ECE7072031
S11312A0ECE700BF0000024C3C0100203D0100209F
S11312B00B4607B50749D1F80414C90708D500211E
S11312C000920246084600F025F903B05DF804FBDD
S11312D00120FAE70000024C0B4607B50749D1F894
S11312E00414C90708D5009201210246002000F029
S11312F011F903B05DF804FB0120FAE70000024C89
S11313001FB50A4CD4F8044464070CD5CDE9001287
S11313100021069C0222CDE902340346084600F06F
S113132025F904B010BD0120FBE700BF0000024C0A
S113133037B54D68044645B18C680093096842EAA4
S113134004032A46FFF73EFF0446204603B030BD9F
S11313502DE9F04F2DED028BD1B008EE103ADDE906
S11313605E7ADDE960980023019104210546CDE908
S1131370031307CA01AC05AB83E80700629E02941D
S1131380002D40F0C48021461846FFF753FF054660
S1131390002840F0B6805D9A08AB07CADAF804402A
S11313A083E80700D9F8043049421C44D8F80430D3
S11313B064425B420093BB6804F00F04DA0048BF48
S11313C07B6801F00F0B42BF033323F003037B6000
S11313D0B368DB0041BF7368033323F00303736016
S11313E00023DAF80400D9F80420CDE91333811876
S11313F02144CDE90C1379680B93494201F00F01A4
S1131400CDE90E3171681093494201F00F01CDE925
S11314101131CDE9153317935D9B5B6853B9D8F847
S113142004301343034305D110218B46CDE909133E
S113143014AA089211234FF0005202A930A8FFF712
S113144077FF40F611034FF0005205A9FFF770FF34
S113145042F611034FF000525C99FFF769FF44F61E
S113146011034FF0005218EE101AFFF761FF4123E9
S113147000225146FFF75CFF23024FF00052494619
S113148043F04103FFF754FF4FEA0B234FF00052A0
S113149043F0010308A9FFF74BFF009B4FF00052F4
S11314A01B0203F47063414643F00103FFF740FF5E
S11314B01038FFF79DFE00230BA91A4618A8FFF762
S11314C037FF002339461A46FFF732FF00230EA9DF
S11314D01A46FFF72DFF002331461A46FFF728FF6F
S11314E0002311A91A46FFF723FF002363991A4624
S11314F0FFF71EFF1038FFF77BFE18A930A8FFF78F
S113150051FE284651B0BDEC028BBDE8F08F072593
S1131510F7E70000F0B51C465B6816468DB01A0765
S11315200546129F1BD1D3B17A68934217D10D4B54
S11315300D4A53F821C009AB07CA83E807003246B5
S11315402846CDE90633CDE90433CDE90273CDE96C
S113155000344CF48071FFF7FBFE0DB0F0BD0720A2
S1131560FBE700BF60310000303100002DE9F0439B
S11315708DB00446DDE914CEDDE91678DCF804000C
S11315801E46030729D140B3DEF80430984224D123
S11315907B68102B21D1D8F80430102B1DD1104BAF
S11315A053F821500F4B53F822900F4A09AB07CA46
S11315B083E8070045EA090132462046CDE90638AA
S11315C0CDE90433CDE902E3CDE9007C41F03001FB
S11315D0FFF7BEFE0DB0BDE8F0830720FAE700BFB9
S11315E0603100003C310000303100000069704778
S11315F070B586B003AE054686E80E00FFF7F6FF29
S11316004428044639D86A6800EB80039A4203D020
S1131610062343439A4232D10B9BB3EB440F2ED1A2
S11316200E9A93422BD1012221463120EB68FFF719
S113163085FC95E807000123CDE900332346FFF735
S113164021FD08230AAA009307CA2346FFF7BCFC1E
S11316500C23009396E807002346FFF785FC0A2332
S11316600DAA009307CA2346FFF7AEFCFFF7FCFC64
S1131670002818BF032006B070BD0120FBE7072037
S1131680F9E700000138C0B206289ABF014B185C84
S1131690002070473C3200000138C0B206289ABFCF
S11316A0014B185C00207047433200000138C0B27F
S11316B006289ABF014B185C002070474A3200008C
S11316C02DE9F04F8046BBB003A81E4680E80E000B
S11316D008F1FF3317468A469DF81091062B00F255
S11316E0F280DFE803F0041F262D343B4200774BE1
S11316F0D3F80C34D80703D401203BB0BDE8F08FF5
S1131700012307930023B9F1010FCDE9083333D046
S1131710B9F1020F00F098804046FFF7C7FF632439
S1131720054637E0694BD3F80C349907E4D5022316
S1131730E7E7664BD3F80C345A07DDD50423E0E71A
S1131740624BD3F80C341B07D6D50823D9E75F4B7B
S1131750D3F80C34DD06CFD51023D2E75B4BD3F896
S11317600C349C06C8D52023CBE7584BD3F80C3453
S11317705806C1D54023C4E7544BD3F80C34D903DD
S1131780BAD5079B404643F4C0630793FFF77AFF3B
S11317900324054613230422009307A94FF00053A2
S11317A012A8FFF70FFD5146009446F000533A4645
S11317B0FFF708FD4FF0000B04465E46DDF814A168
S11317C0469B9B4564D1B9F1030F0AD14046FFF70C
S11317D06DFF874277D14046FFF75EFF0138304204
S11317E071D1002E67D1032332462046009308A905
S11317F03346FFF7E7FC04260446A4F110000290E8
S1131800FFF7F6FC31460298FFF7FDFC489AAA421E
S113181028BF2A461446002A53D000234799009330
S11318200AA8499BFFF7CEFC2A1B04D000231946C3
S11318300093FFF7C7FC1038FFF7DAFC12A80AA9D7
S1131840FFF7B0FC002058E7204BD3F80C24920398
S11318507FF552AFD3F80C34DB037FF54DAF97B16E
S11318607C423946374604F00304079B404643F460
S1131870E0630793FFF706FF24023E4605460F4642
S113188044F0A30486E704210DF1200A0C46ECE79A
S1131890DAF8042016444AB1032300932046DAF808
S11318A00830DAF80010FFF78DFC04460BF1010B49
S11318B00AF10C0A84E716F0030618BFC6F1040601
S11318C09BE70AA8B0E7072017E700BF0000024C17
S11318D070B58AB007AC84E80E0003AD064694E800
S11318E0070085E80B00012302930EAB0193032349
S11318F00093304694E80E00FFF7E2FE0AB070BD94
S113190001F07FBB82B02DE9F0418AB005AE12F040
S1131910804586E80700149C119333D1139B8C42B5
S113192028BF0C4613F080538846129A02D1944281
S113193028BF144634B30F2C13D9DDE912018DE806
S113194003000294119B96E80700FFF7CDFBFFF715
S1131950F9FBFFF701FC0AB0BDE8F04102B0FFF764
S11319600DBC059E119F93B1A8EB0502042A3B68A8
S113197028BF0422701909A90435099301F034FB26
S1131980AC42F1D80AB0BDE8F04102B0704722463B
S1131990394630460AB0BDE8F04102B001F024BB3C
S11319A02422002101F02DBB70B515460E462422D9
S11319B00021044601F025FB25F04003802B02D0D2
S11319C0B5F5807F08D12046314640F8045BEA082B
S11319D001F00AFB002070BD6FF01F00FBE730B57B
S11319E00129016808BF012421F0400518BF022421
S11319F0802D8BB002D0B1F5807F22D1C90802912D
S1131A000021CDE9031210220430CDE90521CDE9EE
S1131A1007320190099100F0A5F868B9012C07AAD2
S1131A2004A901A80AD1FFF743FC044600F0B0F86A
S1131A30204318BF6FF024000BB030BDFFF74CFCFF
S1131A40F3E76FF07100F7E72DE9F04F82460F4698
S1131A509846164691B012B31568DAF8003023F0B0
S1131A604002802A02D0B3F5807F73D1DB080024C2
S1131A7005931023CDE908341B9BCDE906480AF1F0
S1131A8004023B44049202930DF11C0BBC4208D3A4
S1131A90002E65D00020356011B0BDE8F08F1546EA
S1131AA0DBE75DB11B9B1A9A1B5D525D0135534008
S1131AB01C9A05F00F0513550134E7E7A7EB040959
S1131AC0B9F10F0F1ED91B9B29F00F092344CDE94F
S1131AD00A391C9B0C952344CDE90D390F9500F070
S1131AE041F80028D8D15B460DAA0AA9CDF800B068
S1131AF004A8FFF705FC039000F04AF8039B034396
S1131B002BD14C441B9B03EB04091C9B1C44029BE0
S1131B104B4501D13C46B9E78DB9424601215046B7
S1131B201A9BFFF75CFF0028B6D108F1100212F8E7
S1131B30013D0133DBB213700BB99045F7D11A9A0A
S1131B4019F8013B525D0135534004F8013B05F09F
S1131B500F05DCE76FF071009EE76FF024009BE750
S1131B60304699E7094B00209A6E42F400529A6677
S1131B70D3F8602242F00102C3F86022D3F8602255
S1131B8042F00202C3F86022704700BF00800040A8
S1131B90094B00209A6E22F400529A66D3F8602210
S1131BA022F00102C3F86022D3F8602222F002027C
S1131BB0C3F86022704700BF0080004000207047D7
S1131BC000207047002070470020704700207047B5
S1131BD0002070470120704700239B6A18697047F2
S1131BE00023986A70474FF4004070470120704703
S1131BF041F2060070470000004870474CE30700BC
S1131C00004870476CE307000048704786E207000D
S1131C102DE9F8434FF08063DFF81891012709F5A7
S1131C208058C8F864304FF400733A4DC8F86430F3
S1131C3005F580535F6040F6AA6300246B6141F2AE
S1131C400503354E354905F50052AC60EC65EB6093
S1131C502C61EC61EC649164C6F83C46C6F85446C9
S1131C60C6F84C46C6F84446C6F84846EB60AB682E
S1131C70AB60FEF771FBD9F870204FF4E113C2F3A7
S1131C8080223A44B0FBF2F202F5E1425201B2FB87
S1131C90F3F2234B203A03EAC20205213B462046D5
S1131CA0EA610422FEF7D0FE3B463A46062120466E
S1131CB0FEF7CAFE14234FF4A020C6F83C364FF4B6
S1131CC0C023C6F85406C6F84C3605234FF0F0512D
S1131CD06B610323134AC8F864305760916012495A
S1131CE05462946314645465086010481466D4659F
S1131CF010670F484860A1F50051C2F89040C2F83F
S1131D008C404B630223976402F580521361BDE853
S1131D10F88300BF0000064000C00340FFFF01003D
S1131D20F8FF7F00000004400040044054320000EB
S1131D300200050000800040084B586B10F00200C0
S1131D4006D002229A6203F5005301205A637047B9
S1131D50DB6A9B07FBD40222014BF6E70000044038
S1131D60002004407F2938B50446154623D8FFF7E0
S1131D70E3FF18B32046134B621890420DD1124B67
S1131D8001391A8861F30E121A80104AC2F8A03081
S1131D900223936435B9002038BD10F8014B03F8D1
S1131DA0014BEAE7FFF7C8FF0028FBD0084A936914
S1131DB09B06FCD5EFE741F20310EDE741F2062064
S1131DC0EAE700BF440300200001002000000440B3
S1131DD0000006400E4BD86E40F2011398420FD01B
S1131DE040F2022398420DD00A4BC01A0A4B1B68DA
S1131DF083420AD02ABFC3F50073C01AC0187047C3
S1131E000020F3E74FF48070F0E70020704700BF34
S1131E10000004403E010020400300202DE9F84367
S1131E20089F04460D461646F3B9FFF7D3FFA842B0
S1131E3028BF284600214FF001084FF002091D4A2F
S1131E40DFF878E013681C4F04EB000C64451DD1E7
S1131E5001B1136006B1306041F20423A84234BFDB
S1131E6018460020BDE8F8832FB1FEF765FD002178
S1131E703846FEF787FDFFF7ADFFA842D5D2002F05
S1131E80F9D0FEF7A5FD0028F5D0CEE71EF8031023
S1131E900133B3F5007F04F8011B04D10023C7F814
S1131EA010900121D2E7B3F5807F08BFC7F81080F6
S1131EB0F7E700BF40030020001004403E0100206B
S1131EC070B5D1E90152AA4205D290F840302B44B2
S1131ED09B1A402B10D9002012E00A6890F8404069
S1131EE0D65C90F841200133224402F03F020134D1
S1131EF086548B6080F840408B689D42EDD8012069
S1131F0070BD2DE9F8431D461746D1E901329B1AED
S1131F1090F84020044613449D420E469DF82090BC
S1131F209DF8248056D9FFF7CBFF00285CD11523F8
S1131F3041F2020084F84630BDE8F88394F8412069
S1131F40A25CFA5494F841200133013202F03F02BA
S1131F5084F8412094F84020013A84F8402094F811
S1131F6040200AB19D42E9D1D6E90121914201D232
S1131F709D4231D89D42DAD129463846D4F888208A
S1131F80FEF7DAFAC4F88800B9F1000F04D02A4643
S1131F903946E06CFEF7B2FBB8F1000F08D094F8B4
S1131FA043308BB12B463A463946A06CFEF706FB0C
S1131FB094F8433043B1E36DA26D2B449342E3653F
S1131FC024BF002384F84330636D41F203002B44A3
S1131FD06365B1E70023C2E73268525CFA54B26821
S1131FE001330132B260BFE70020A5E77FB50023CB
S1131FF0CDE90033082315460DEB03020446FFF731
S113200080FF41F203039842064626D194F84330F8
S113201063B10822E06C0DEB0201FEF76FFB0823AD
S11320200DEB03021146A06CFEF7C8FA039A029B5B
S11320306A6094F843202B605AB9094A934208D045
S1132040084A934205D00822E06C0DEB0201FEF72A
S113205055FB6B68236500236365304604B070BD8F
S1132060F70A0AF7FC0404FC2DE9F3470446586810
S11320700D4690469946002843D08B0744D1FFF77C
S1132080ABFD216E031D08EB010C63451DD800F167
S11320901C07B94219D28B421E4638BF0E46BC45B6
S11320A094BFC6EB0C02C6EB0702711AF61A05EBD5
S11320B0010A06F1680051462044019200F094FFA1
S11320C0FF215046019A00F09CFFFFF78CFD226E21
S11320D0031D93420BD308EB02010830814206D35F
S11320E09B1AEA58C4F880204FF0FF32EA50424667
S11320F0D9E90036206E2946B0470020226E4244BA
S1132100226602B0BDE8F08741F20200F9E72DE94A
S1132110F04100264FF0FF3804460F46154603F001
S1132120200380F842301822FF21C0E91866A0F885
S1132130406080F84360A0F8446080F84660C0F8CE
S11321408880683000F05DFF88223146C4E912754A
S1132150C4F88080C4F8848004F1900000F051FF3A
S113216084F81861FFF730FD20B11FB941F20B006C
S1132170BDE8F081FFF726FD30B1002DF6D0E06C0C
S1132180FEF7A8FA0020F3E7002DF8D12846EFE780
S11321902DE9F04F0027B7B0CDE90923D7F83490E3
S11321A0029304460E46409D0B97FFF719FD036901
S11321B0403B994500F2E480B8460B9A029B9A4250
S11321C05ED294F84630152BF8D8DFE813F08C0073
S11321D0A5008500D6005B0042003900770242006A
S11321E07102420058024200710276034B04160049
S11321F0E103E5030104FA024B044FF0000A636DA6
S11322000F2B6ED8012710230CAA2046CDF804A06A
S1132210009709A9FFF775FE41F203030690069A99
S11322209A426BD1D4F848B0FFF7EEFC8023022128
S1132230CDE900030DAA3B465846FEF795F9DEE7C3
S11322400127D4E914329A42C0F0A08184F8467080
S1132250B3E74FF0010AD4E91473BB420B9940D29F
S11322600A9AFF1A94F84030521A032F1A4440F283
S11322702982032A00F22982204609A9FFF720FEB9
S11322800020B4E00127636D072B96D808230CAA1D
S11322902046CDE9007709A9FFF733FE41F2030395
S11322A00690069A9A4229D1337843F00203337098
S11322B00C9B7360236D083B73620D9B0593002B8D
S11322C05BD1052284F8462094F84520636642F0E9
S11322D0010284F84520D6E70027636D072B40F2FE
S11322E00481012315E007AA204609A9FFF77EFE11
S11322F041F203030690069A9A4201D0069876E0CA
S1132300089B079A236500236365944B9A4234D152
S1132310022384F8463050E707AA204609A9FFF7AC
S113232065FE41F203030690069A9A42E6D194F8B8
S11323304420079B22B18A4A93421ED10E23E8E728
S113234094F84220D7075AD594F84320002A56D14E
S113235084498B4200F0BD8020D8834A93420CD03C
S113236011D8824A934200F0AD801ED87B4A934232
S113237003D002F1B642934217D1152384F84630B4
S113238041F2010033E07A4A93422BD00DD802F196
S11323907E42023A9342F0D0764AECE776498B4289
S11323A017D00BD875498B4215D0152307A884F88C
S11323B04630FFF703FC0028E2D116E0684A934256
S11323C018D0013A9342F0D96D4A9342D5D06D4A60
S11323D0D1E710239DE7112384F84630236DC4E927
S11323E01632EAE6152384F8463041F2080037B085
S11323F0BDE8F08FFFF7E6FB00289FD0BDE75D4AFC
S1132400934256D037D8584A934250D02ED802F12E
S1132410D54202F5E01202F6F742934245D0534A00
S113242093424AD007A8FFF7C9FB002853D01423CE
S1132430079884F84630C4F88C00FFF7C1FB94F881
S11324404230804698067FF5B8AEB8F1000F3FF4ED
S1132450B4AED8F80430002B3FF4AFAE2046984712
S11324600690069B002B3FF4A8AE89E7464A9342A8
S1132470D8D104234DE7424A93421CD010D8394A9C
S1132480934221D0364A9342CCD1FFF79BFB0028DC
S11324907FF473AF94F84330002B3FF44FAF6CE7F5
S11324A0384A9342BED1092333E70B2331E706238D
S11324B02FE707232DE70D232BE794F84330002B58
S11324C07FF45BAF122324E794F84330002B7FF4AE
S11324D054AF13231DE7152384F8463094F8433092
S11324E0002B82D041F2040081E701230CAA00935F
S11324F020460823019709A9FFF703FD41F20303CE
S11325000690069A9A427FF4F9AE0C9B03F07F433F
S1132510B3F1407F05D0152341F2090084F8463019
S113252065E70D9BD90705930ED594F8423043F027
S1132530010384F84230FFF745FB00283FF4CDAE99
S1132540059BDA0504D5C8E6FFF73EFB0028F2D068
S1132550152341F20A0084F8463048E7EB17A60336
S1132560FC0404FCF70A0AF7F40A0AF4F30B0BF36D
S1132570F70909F7F60808F6FA0606FAF90707F95B
S1132580FD0303FDFE0101FEF50909F50CAA204631
S1132590CDE9007709A9FFF7B4FC41F203030690E3
S11325A0069A9A427FF4AAAE06F1080A53460DF140
S11325B0300C0DF1480E624603CA7245186059602A
S11325C0944603F10803F6D1106818603378504636
S11325D043F001033370FFF709FB28B9152341F2D7
S11325E00C0084F8463002E700215046FFF7F2FA67
S11325F000287FF426AEF1E701230EAACDE90033CB
S11326002046082309A9FFF77CFC41F20303069046
S1132610069A9A427FF472AE337843F0040333701F
S11326200F9BB36273785B0726D5EB238DF83030AC
S113263017238DF83130A6238DF832305E23002025
S11326408DF83330236D6066C4F8843094F84530D7
S113265043F0020384F84530EF686FB104222B681D
S11326600CA9B8470822606E2B68EF680EA91044C5
S1132670B847636E103363660C2384F84630636D89
S1132680072BB9D999E504230CAA2046CDE9007794
S113269009A9FFF736FC41F203030690069A9A4211
S11326A07FF42CAE226D0C9B042A059301D923667A
S11326B00127636D032BE6D90A232AE60023636608
S11326C0082326E697423FF6D7AD402F28BF402780
S11326D0974228BF1746032F88BF27F003073B46BE
S11326E00CAA2046CDE900AA09A9FFF70AFC41F289
S11326F003030690069A9A427FF400AE94F846309B
S1132700082B04D1D5F808B0BBF1000F22D1042F57
S1132710C7F1040B88BF4FF0000B03930CAB5A4670
S1132720D819FF2100F06DFC039BBB440A2B1AD17E
S11327306B683BB1012106F10800FFF74BFA002852
S11327403FF44CAF2B465A4620460CA9FFF78CFCAD
S1132750069080E53A462B68606E0CA9D847626EF5
S11327603A44626677E5052B20D173789F077FF59D
S113277072ADEB68002B3FF46EAD626E042A0BD889
S11327800BEB0203062B07D90DAB9B1A1A68C4F88E
S113279084204FF0FF321A60EF685A462B68606E4F
S11327A00CA9B847676E5F44676654E50C2B7FF449
S11327B052AD737858077FF54EADEF68002FECD11A
S11327C049E594F84230990607D5D4F88C00FFF710
S11327D0F7F9804600283FF4D3AD6B683BB1012183
S11327E006F10800FFF7F6F900283FF4F7AE4FF0C2
S11327F0010A43E0002B5ED0B8F1000F5BD0D8F89B
S11328001030002B57D020469847DDE90A73FF1A91
S113281094F840303B4498423FF62EADD4E914720C
S1132820BF1A402F28BF40279F4228BF1F460CAA2B
S11328303B462046CDE900AA09A9FFF762FB41F215
S113284003030690069A9A427FF458AD94F84230F6
S11328509A0613D5B8F1000F3FF492ADD8F808B03A
S1132860BBF1000F3FF48CAD2B463A4620460CA931
S1132870D8470690069B002B7FF440ADD4E9142181
S113288094F84230914203F02003B3D3002B3FF479
S113289028ADB8F1000F3FF424ADD8F80C30002B6C
S11328A03FF41FAD2946204698470690069B002B0F
S11328B03FF417AD22E50120A7E700230CAACDE9D8
S11328C000332046042309A9FFF71BFB41F203034D
S11328D00690069A9A427FF411ADD4F88820634B8F
S11328E09A4205D0152341F2050084F846307EE56E
S11328F0FFF768F9002842D10123F37094F84530BA
S11329009B0707D0EF682FB104222B68104604F10F
S11329108401B847236E002B34D06B6893B34FF017
S1132920FF3304F18001042205A80593029100F00D
S11329304BFB40B1FFF757F928B1D5E90037042222
S113294002991044B84704F168070422394605A8DF
S113295000F03AFBB0B1D5F80480FFF73DF92B68DD
S113296004F16C0114220830C047D5F80480FFF745
S113297033F9042239462B681044C04702E0F37847
S1132980002BBBD10123B3700F2384F8463077E4C6
S1132990012384F84330BCE494F81831002B7FF40D
S11329A00CAC4A461CAB204609A9FFF721F941F2B9
S11329B006030690069A9A4203D1152384F84630FA
S11329C09CE441F20303069A9A423FF4F6AB95E481
S11329D094F84430002B7FF484ACCDE900330CAA86
S11329E04023204609A9FFF78CFA41F2030306901D
S11329F0069A9A427FF482ACE06CFDF781FE94F86B
S1132A001831A3B104F1B403009304F19403E06C0E
S1132A1014AA0CA9FDF7E4FD0690069BEBB1002374
S1132A20F370152341F2060084F84630DFE4FFF723
S1132A30CDF830B1D9F8383003F1240200920433D0
S1132A40E5E7E76CFFF7D8F80390FFF7D9F8039BA5
S1132A50009014AA38460CA9DCE70123F37084F82B
S1132A6044303EE441F20700C1E400BFE320BBDE92
S1132A70C0F30C032DE9F04105460F4616460BB989
S1132A8000F06CFA05F5005424F4FF5424F01F04FC
S1132A9005EB0608A04507D8324639462846BDE866
S1132AA0F041022300F068BA204600F057FA04F51A
S1132AB00054EFE737B5044615460191FFF790F847
S1132AC00369A3420BD8426963199A4207D32A4681
S1132AD02046019903B0BDE83040FFF7C9BF03B0F9
S1132AE030BD2DE9F041154607468846FFF778F8D2
S1132AF00646FFF778F8C4196319B3F5002F0FD809
S1132B003FB9FFF770F87369834202D9306900F066
S1132B1025FA2A4641462046BDE8F041FFF7A8BF02
S1132B20BDE8F0817FB50346D0B16D460D4A02F190
S1132B3010062C4610685168083203C4B242254678
S1132B40F7D15A1E0DF10F010F3311F8010912F8D4
S1132B50014F844204D19A42F7D1012004B070BDE0
S1132B600020FBE794320000036913F0FE0F0CBF52
S1132B7001200020704738B504460D46FFF7D2FF08
S1132B8048B16369012B09D12046FFF7EDFF08B175
S1132B90A3692B6038BD01202C60FBE70020F9E716
S1132BA040F204632DE9F041A4B0446B0546089358
S1132BB0FFF716F806462046FFF7B4FF18B90020C1
S1132BC024B0BDE8F0812046FFF7CEFF0028F6D000
S1132BD0FEF7FEFF002849D14FF00008D8F8347002
S1132BE03846FFF79FFF0028E9D03369403B9F42F6
S1132BF0E5D820460DF11F018DF81F80FDF7A5FBD8
S1132C000028DCD0204609A9FFF7B5FF0028D6D05C
S1132C10099B32699A42D2D8AB42D0D3B3F5002F84
S1132C20CDD80AA8FDF756FD099A2946521B0AA8D1
S1132C30FDF764FD0AA8FDF763FD099A20320392AB
S1132C40FEF7C4FF0999039AC8B19DF81F30A3B1D8
S1132C50A36B03F12400009004330AA8FDF7C0FC21
S1132C6008900898B0FA80F04009A9E70121206A89
S1132C70FDF768FB0028AFD1A1E7BB6BE9E7CDE91D
S1132C800421FEF7B9FF0390FEF7BAFFDDE9033232
S1132C9005990090E1E70000F8B5D0E9006706F176
S1132CA060460446456BFEF79BFFB6F5004F01D91D
S1132CB00020F8BD0369BB42FAD8B7F5002FF7D856
S1132CC04033AB4202D8B5F5002F05D9FDF732FCED
S1132CD080F00100C0B2ECE7FDF72CFC20B12046E7
S1132CE0BDE8F840FFF75CBF2846FFF71BFFB8B10B
S1132CF02846FFF739FF0028DAD06B69002BD8D0BB
S1132D00022BECD1AB69C4F1040119444FF0FF323A
S1132D102046FDF711FC034BC31A58425841C8E73B
S1132D200120C6E7E320BBDE30B54FF0FF3289B0A7
S1132D3005460C46FDF700FC0E4B984217D1FDF7F3
S1132D4003FB40F2022000F0CAF81C22002101A873
S1132D5000F057F9084B294668460093FDF776FFC3
S1132D6068462146FDF772FF6846FDF779FF0020AB
S1132D7009B030BDE320BBDE010006434FF0FF3352
S1132D8013B5044601A80193FEF722F830B9019B5C
S1132D90A3422CBF0020012002B010BD0020FBE79D
S1132DA010B5044688B040F2022000F098F81C22C6
S1132DB0002101A800F025F9054B2146684600933F
S1132DC0FDF744FF6846FDF74BFF002008B010BD37
S1132DD000000343B1F5027F10B504460FD34FF44E
S1132DE00272002100F00DF904F5C87204F5A47113
S1132DF004F12C000023BDE81040FFF788B940F22D
S1132E00052010BD13B50446009101462C30FFF790
S1132E10BFF9C4F8040218B141F20703984209D17A
S1132E20A3784BB140F2032040F20223E278002A57
S1132E3008BF184602B010BD40F20120FAE72DE9A0
S1132E40F04387B00DF1080904460E4617460021E9
S1132E50102248461D46DDF8388000F0D2F80021E3
S1132E601C22C8F80010284600F0CBF832463B4636
S1132E702146CDF8009004F12C00FFF789F923785E
S1132E809A0744BF6268C8F80020DB0709D504F13B
S1132E90080304F1240253F8041B934245F8041B6D
S1132EA0F9D1237840F20640002B18BF002007B068
S1132EB0BDE8F0834FF4027070474FF000534CF2BA
S1132EC03C325A8070474FF000534AF6C0305B885A
S1132ED023F00F039BB21B1A5842584170474FF01E
S1132EE0005208B51080FFF7EEFF10B94FF20F0340
S1132EF0538008BD08B5FFF7F2FFBFF34F8F0549B4
S1132F00054BCA6802F4E0621343CB60BFF34F8FF2
S1132F1000BFFDE700ED00E00400FA0508B5FFF787
S1132F20D2FF30B94FF000534FF20F015A888A4252
S1132F3003D14FF00053188808BD3AB91B8840F2FA
S1132F400220012B18BF4FF40070F5E74FF4007016
S1132F50F2E74FF000531888704700004FF4003236
S1132F6008B5044B9A66FDF7D9FDB0FA80F0400924
S1132F7008BD00BF00900040072BF8B506460F4679
S1132F8014461D4601D90020F8BD01212020FDF77B
S1132F9039FD01212120FDF735FD8CB144EA0603FA
S1132FA09B07F0D14FF40032064B31469A6628460F
S1132FB023463A46FDF7DCFDB0FA80F04009E3E72A
S1132FC00120E1E7009000400139024410B590422D
S1132FD001D1002005E0037811F8014FA34201D08C
S1132FE0181B10BD0130F2E70A44431E914200D180
S1132FF0704710B511F8014B914203F8014FF9D114
S113300010BD02440346934200D1704703F8011BEC
S1133010F9E70000F8B500BFF8BC08BC9E4670474D
S1133020F8B500BFF8BC08BC9E467047000000001D
S1133030B52A000000000000E32A00000400000795
S113304000000D1013001A202630384050000000F4
S113305007B0CD5E0100000000000C01C832000082
S11330600060000000000800F00010004F030000A2
S113307053030000992C0000D52D0000052E0000FC
S1133080000000003F2E0000B52E000000000000EC
S113309013B779FAC925DDB7ADF3CFE0F1B614B8AB
S11330A00101000000000000C432000040000000E4
S11330B000000C01000000000000000000000000FF
S11330C000000000000000000000000000000000FC
S11330D06A09E667BB67AE853C6EF372A54FF53AA5
S11330E0510E527F9B05688C1F83D9AB5BE0CD19D1
S11330F0800000000000000000000000000000004C
S113310000000000000000000000000000000000BB
S113311000000000000000000000000000000000AB
S1133120000000000000000000000000000000009B
S1133130000000000000000000000040000100004A
S1133140000200000004000000080000001000005D
S1133150002000000040000000800000000001008A
S11331600000000001000000FFFFFFFF000000015D
S1133170000000000000000000000000FFFFFFFF4F
S1133180FFFFFFFFFFFFFFFFFFFFFFFF0000000047
S1133190FFFFFFFFFFFFFFFFBCE6FAADA7179E840A
S11331A0F3B9CAC2FC6325516B17D1F2E12C424733
S11331B0F8BCE6E563A440F277037D812DEB33A0F0
S11331C0F4A13945D898C2964FE342E2FE1A7F9B98
S11331D08EE7EB4A7C0F9E162BCE33576B315ECEB7
S11331E0CBB6406837BF51F5FFFFFFFF0000000179
S11331F0000000000000000000000000FFFFFFFFCF
S1133200FFFFFFFFFFFFFFFC5AC635D8AA3A93E73A
S1133210B3EBBD55769886BC651D06B0CC53B0F6AD
S11332203BCE3C3E27D2604B68310000C00000001A
S113323000000000000010002000000010141C20FA
S113324030402040404040808040101420204040C6
S113325020000000F00F1003240006403E0100206F
S11332601300000009000000000100000202000039
S113327013000000F00F1003240006403E0200205B
S1133280130000000900000000020000010100001A
S1133290D3FFFFFFB814B6F1E0CFF3ADB7DD25C916
S10F32A0FA79B7130000000000000000E1
S11332ACF07F1030440300203C0006400000000076
S10B32BC650000004100000060
S90302ED0D
